:03000000020E707D
:0C0E7000787FE4F6D8FD758140020EB7D3
:0311950000000057
:100EFC004D003741542B43574D4F44453D320D0A5D
:100F0C006026004441542B43575341503D224553D6
:100F1C005038323636222C22303132333435363793
:100F2C003839222C31312C330D0A48006C41542BAA
:100F3C005253540D0A4D000041542B4349504D550A
:100F4C00583D310D0A55001A41542B434950534515
:100F5C00525645523D312C353030300D0A4B000E77
:100F6C0041542B43495053454E443D4400300000FE
:020F7C00000073
:0E1076003EF583E0F5997F057E007D007C004D
:06108400900081120C2B0C
:10108A00E4900085F0900085E0FFE4FCFDFE90000E
:10109A0081E0F8A3E0F9A3E0FAA3E0FBD3120C1A6B
:1010AA00401200007F167E80DEFEDFFC900085E0A5
:0410BA0004F080D1ED
:0110BE00220F
:0A100100D2B47F647E007D007C0005
:06100B00900081120C2B85
:10101100900085120C3700000000E47F64FEFDFCA7
:10102100900081E0F8A3E0F9A3E0FAA3E0FB120B42
:10103100CBA804A905AA06AB07900085E0FCA3E0B4
:10104100FDA3E0FEA3E0FFD3120C1A402790008518
:10105100E0FCA3E0FDA3E0FEA3E0FFE4FAF9F8EF72
:101061002401FFEA3EFEE93DFDE83CFC90008512CB
:041071000C2B80A61E
:011075002258
:04114B00AB07AA063E
:10114F009000007C007D0AAF03AE02120B64C3E572
:0A115F00829FE5839E5003A380E900
:011169002263
:101123007F0A7E0012114BC2967F1D7E0012114B67
:10113300D2967F037E0012114BA296E433F97F19F6
:071143007E0012114BAF0109
:01114A002282
:10117C00C296D296E4FF0FEFB403FBA296E433FFC2
:01118C002240
:10116A00C296EFB40102D2967F057E0012114BD2CD
:02117A009622BB
:0510F600900075EFF011
:1010FB00E4F9900075E0FFA801088002C313D8FC47
:10110B00900076F05401FFF012116A7F057E0012F9
:07111B00114B09E9B408DBE8
:0111220022AA
:1010BF009000757401F0E4A3F0F912117CEF601544
:1010CF00900075E0FFA801088002C333D8FCFF90A1
:1010DF000076E02FF07F067E0012114B09E9B4086D
:0610EF00D9900076E0FF3D
:0110F50022D8
:100F7F001211237FCC1210F67F441210F612112398
:100F8F007FCC1210F67FBE1210F61210BF900036F3
:100F9F00EFF01210BF900035EFF0FEA3E07C0024BD
:100FAF0000FFEC3EFEBEFF08BFFF057EFF7FFF2266
:100FBF00D3EF9400EE94804026EFF4FFEEF4FEEFB3
:100FCF002401FFE43EFE7C007D05120B64EF7803E5
:100FDF00CEC313CE13D8F92400FFEE3480FE227C4B
:100FEF00007D05120B64EF7803CEC313CE13D8F92F
:010FFF00FFF2
:0110000022CD
:08118D008F993099FDC29922EF
:080DE000900075EEF0A3EFF0A6
:100DE800E4A3F078787C007D017BFF7A117995FE89
:100DF8007F03120B3E900075E0FAA3E0FB7C037DB5
:100E0800E8FFAE02120B767E007F64CFCDCFCECC4A
:100E1800CE120B76900078EFF07C007D64AF03AEC5
:100E280002120B767E007F0ACFCDCFCECCCE120B2E
:100E380076A3EFF0900075E0FEA3E0FF7C007D0A4A
:100E4800120B76AF0590007AEFF0900078E024302E
:100E5800900030F0900079E02430900031F0A374D5
:070E68002EF0ED2430A3F091
:010E6F002260
:100C6800E4900074F0C20090006AF0A3F0E5985494
:100C78003F4440F59853A23F538EEF438E01438E75
:100C88000475D6FD75D7C0438E10D29CD2ACD2AFB6
:100C9800E4F5B175B2FF90006AF0C2B3C2B47FD078
:100CA8007E07FDFC12100BE4900074F0900074E0D5
:100CB800FFC36480948D5017EF3395E0FE74372F8F
:100CC800F5827400121076900074E004F080DD7FE5
:100CD800E87E03121007E4900074F0900074E0FFBF
:100CE800C3648094A65017EF3395E0FE74442FF543
:100CF800827400121076900074E004F080DD7FB8F2
:100D08007E0B121007E4900074F0900074E0FFC3AB
:100D1800648094885017EF3395E0FE746C2FF58249
:100D28007400121076900074E004F080DD7F887EF5
:100D380013121007E4900074F0900074E0FFC3648D
:100D480080948D5017EF3395E0FE74002FF5827470
:100D580000121076900074E004F080DD7FD07E07EA
:100D6800121007E4900074F0900074E0FFC36480F0
:100D780094955017EF3395E0FE741A2FF58274009E
:100D8800121076900074E004F080DD7FD07E0712A8
:100D98001007120F7F7F507EC312114B120F7F7FF7
:100DA800507EC312114B120F7F120DE020930B12CD
:100DB800107C209302B2903093FD20920B12107C8D
:100DC800209202B2913092FD2094DB12107C209484
:080DD80002B2B72094D080FBA9
:03002300020800D0
:10080000C0E0C0F0C083C082C0D075D000C000C0BE
:0D08100001C002C003C004C005C006C0073F
:10081D00209803020A4CC29890006AE02421F8A6A1
:10082D00997821E6FFB44505E004F0800590006A53
:10083D00E4F090006AE0C3940A5003020A4CEF649E
:10084D00456003020A427822E664536003020A42BD
:10085D0008E664506003020A427825E6FF644C7096
:10086D004908E66445704308E66444703D08E6FEB9
:10087D00B4310F7824E6FDB44B02C290EDB44702BB
:10088D00D290EEB4320F7824E6FEB44B02C291EE54
:10089D00B44702D2917828E6B4330F7824E6FEB43B
:1008AD004B02C2B7EEB44702D2B7EF644A701F785D
:1008BD0026E6B4441908E6B4511408E6B4310F78AD
:1008CD0024E6FFB44B02D2B3EFB44702C2B378248F
:1008DD00E66446702708E6644D702108E6645170A1
:1008ED001B08E66443701508E6B45310121001C2DC
:1008FD00B4121003121001C2B41210037824E6646E
:10090D00436003020A4208E664586003020A420883
:10091D00E664536003020A4208E6644A6003020A71
:10092D004290007E209005744BF080037447F09048
:10093D00007F209105744BF080037447F090008088
:10094D0020B705744BF080037447F090007DE4F000
:10095D0090007DE0FFC36480948B5017EF3395E0DA
:10096D00FE740E2FF582740012107690007DE00457
:10097D00F080DD75993012107C75992C12107C75F4
:10098D00993212107C75993612107C75990D1210D2
:10099D007C75990A12107C75994512107C759953C6
:1009AD0012107C75995012107C75994C12107C7533
:1009BD00994512107C75994412107C75993112105D
:1009CD007C90007E12107975994C12107C759945AA
:1009DD0012107C75994412107C75993212107C900E
:1009ED00007F12107975994C12107C759945121073
:1009FD007C75994412107C75993312107C9000808F
:100A0D0012107990003012107990003112107990F7
:100A1D00003212107990003312107975995012101E
:100A2D007C75995312107C75994512107C75990A35
:100A3D0012107C800090006AE4F090006AE4F030BF
:060A4D009904C299C200E9
:100A5300D007D006D005D004D003D002D001D000F7
:0B0A6300D0D0D082D083D0F0D0E032A1
:100E7C00020C68E493A3F8E493A34003F68001F218
:100E8C0008DFF48029E493A3F85407240CC8C33377
:100E9C00C4540F4420C8834004F456800146F6DF46
:100EAC00E4800B0102040810204080900EFCE47ECC
:100EBC00019360BCA3FF543F30E509541FFEE4933B
:100ECC00A360010ECF54C025E060A840B8E493A302
:100EDC00FAE493A3F8E493A3C8C582C8CAC583CA2D
:100EEC00F0A3C8C582C8CAC583CADFE9DEE780BEE5
:010F7E000072
:100A6E00E709F608DFFA8046E709F208DFFA803E6A
:100A7E0088828C83E709F0A3DFFA8032E309F60857
:100A8E00DFFA8078E309F208DFFA807088828C83BF
:100A9E00E309F0A3DFFA806489828A83E0A3F60873
:100AAE00DFFA805889828A83E0A3F208DFFA804C4D
:100ABE0080D280FA80C680D4806980F28033801024
:100ACE0080A680EA809A80A880DA80E280CA80338D
:100ADE0089828A83ECFAE493A3C8C582C8CCC58305
:100AEE00CCF0A3C8C582C8CCC583CCDFE9DEE780D5
:100AFE000D89828A83E493A3F608DFF9ECFAA9F054
:100B0E00EDFB2289828A83ECFAE0A3C8C582C8CCA9
:100B1E00C583CCF0A3C8C582C8CCC583CCDFEADEC2
:100B2E00E880DB89828A83E493A3F208DFF980CC24
:100B3E0088F0EF60010E4E60C388F0ED2402B4041D
:100B4E000050B9F582EB2402B4040050AF232345C4
:060B5E008223900ABE7321
:100B6400EF8DF0A4A8F0CF8CF0A428CE8DF0A42EA5
:020B7400FE225F
:100B7600BC000BBE0029EF8DF084FFADF022E4CC63
:100B8600F875F008EF2FFFEE33FEEC33FCEE9DEC2C
:100B9600984005FCEE9DFE0FD5F0E9E4CEFD22ED72
:100BA600F8F5F0EE8420D21CFEADF075F008EF2FBC
:100BB600FFED33FD4007985006D5F0F222C398FDAD
:050BC6000FD5F0EA224A
:100BCB00E88FF0A4CC8BF0A42CFCE98EF0A42CFCC9
:100BDB008AF0EDA42CFCEA8EF0A4CDA8F08BF0A447
:100BEB002DCC3825F0FDE98FF0A42CCD35F0FCEBA6
:100BFB008EF0A4FEA9F0EB8FF0A4CFC5F02ECD396B
:0F0C0B00FEE43CFCEAA42DCE35F0FDE43CFC22D7
:100C1A00EB9FF5F0EA9E42F0E99D42F0E89C45F030
:010C2A0022A7
:0C0C2B00ECF0A3EDF0A3EEF0A3EFF0223C
:100C3700A8828583F0D083D082120C4E120C4E12FC
:100C47000C4E120C4EE473E493A3C583C5F0C58321
:100C5700C8C582C8F0A3C583C5F0C583C8C582C807
:010C6700226A
:00000001FF
