:03000000020B6789
:0C0B6700787FE4F6D8FD758182020BAEA9
:10054E0041542B434C4453454E443D3130004154AD
:10055E002B434C4453544152540041542B434C446E
:10056E00554E42494E440041542B5253540041546F
:10057E002B43574D4F44453D310041542B43574A71
:10058E0041503D223336307765222C227A747930F1
:10059E00303132303031220041542B4349505354C4
:1005AE004152543D332C22554450222C22636C6F01
:1005BE0075642E61692D7468696E6B65722E636F3A
:1005CE006D222C353030312C323436382C300052EE
:1005DE0050543A2230786131623233343637222C1D
:1005EE002230786166333231323334222C22313963
:1005FE00322E3136382E302E313233222C226C6987
:10060E00676874222C223132333435366122004130
:10061E00542B4349504D55583D310041542B4349BD
:10062E005053544152543D342C22554450222C22C6
:10063E00636C6F75642E61692D7468696E6B65727B
:10064E002E636F6D222C353030312C323436382CEF
:10065E00300041542B4353595349440041542B43CA
:10066E0057534D41525453544152543D310041540D
:10067E002B4C414E535441525400303030303030B8
:10068E00303030303030303030303030303030305C
:10069E003030303030303030303030303100415446
:1006AE002B43495053454E443D342C0041542B436B
:1006BE00495053454E443D332C3633004C49474840
:1006CE00543A313B004C494748543A303B0032349F
:1006DE0036392C30002B4353595349443A43484939
:1006EE0050002B4950442C004C494748543A004C7A
:1006FE0049474854523A004C49474854473A004CEF
:10070E0049474854423A002B4950442C342C323637
:10071E003A52504C3A005749464920474F54004CE4
:10072E0049474854523A004C49474854473A004CBE
:07073E0049474854423A000C
:10091600C107C10441003100C10141000800410086
:10092600041041000A0B4100413A41003E00C1005B
:10093600C10341000500204043551E00A000F3C03E
:1009460000000054019FA600000000000800CC54DF
:10095600393A66AA1CB6C555000000000000000022
:100966000000000000000000000000000000000081
:100976000000000000000000004A003254454D50BF
:100986003A3132333B0041000D00C10542000B00F5
:1009960000C106C108C10901100041003F00410025
:1009A60000014100010041004200410040004100B9
:0F09B60009004100070041000600420002000056
:100F2A00E4FF7F407843E4F608DFFCE490003CF0FD
:100F3A00D20C90005AF0C20AF9900022C9F0A3F02C
:030F4A00A3E9F028
:010F4D002281
:100CE600301070C21090000D7409F07D01FF120AD9
:100CF600B47B017A00790E120D5A7FE87E037D00DF
:100D06007C00120E4A7B017A00793290000DE0FDDC
:100D1600120DFFC291D2B47FC87E007D007C001206
:100D26000E4AD291C2B4900053E004F0E0FD75F093
:100D36006484E5F075F00A842430900037F0ED7590
:100D4600F00A84E5F02430A3F0900054E0243090BB
:040D56000039F0224E
:10083200E4FEFD7E0C900025E4F0A3DEFCE4FEEF76
:10084200B40114EE90072D93FC74252EF582E43446
:1008520000F583ECF0802EEFB40214EE900735938E
:10086200FC74252EF582E43400F583ECF08016EF5B
:10087200B40312EE90073D93FC74252EF582E43406
:1008820000F583ECF00EEEB407B5EFB4010790006B
:1008920001E0FD8014EFB40207900042E0FD800900
:1008A200EFB40305900040E0FDEDC3940A4025ED4E
:1008B20075F00A84243090002CF0ED75F00A84E57E
:1008C200F02430A3F0A3740DF0A3740AF090000D8D
:1008D20004F08013ED243090002CF0A3740DF0A3EB
:1008E200740AF090000DF090000DE0FF7D01120AF5
:1008F200B47B017A00790E120D5A7F327E007D00A0
:100902007C00120E4A7B017A00792590000DE0FDF1
:03091200120DFFC4
:0109150022BF
:10002600E4900043F0A3F0A3F0C2CC120E92C2B447
:100036007FE87E037D007C00120E4A900001E0906E
:100046000009F0900042E0900007F0900040E09038
:100056000006F07B017D017F01120EC912000E2001
:100066009415C291D2B47FF47E017D007C00120EFD
:100076004AD291C2B4D2007BFF7A05797C120D5A1E
:100086007FF47E017D007C00120E4A120F2A30009A
:10009600147BFF7A06796A120D5A7FF47E017D0081
:1000A6007C00120E4AD2B47FF47E017D007C0012E1
:1000B6000E4AC2B47FF47E017D007C00120E4A9087
:1000C600004974FFF0A37407F0A37424F07B007A50
:1000D6000079431209F5E94A4B60CAC20A7BFF7AE6
:1000E60005795C120D5A7FE87E037D007C00120EB6
:1000F6004A7BFF7A06797C120D5A7FF47E017D00D9
:100106007C00120E4A200E0302026AC20E209410D0
:10011600900003E004F07006900002E004F080070F
:10012600E4900002F0A3F0D3900003E094F4900072
:1001360002E094014050E4F0A3F07BFF7A05796871
:10014600120D5AD2B47F647E007D007C00120E4AE6
:10015600C2B47F647E007D007C00120E4AD2B47F5A
:10016600647E007D007C00120E4AC2B47F647E006D
:100176007D007C00120E4AD2B47F647E007D007C36
:1001860000120E4AC2B4900009E0FF900001E0D3CD
:100196009F4017900009E004F0E0FF900007E0FDA3
:1001A600900006E0FB120F4E8022900009E0FF90BF
:1001B6000001E0C39F5015900009E014F0E0FF90A5
:1001C6000007E0FD900006E0FB120F4E900007E0EE
:1001D600FF900042E0D39F401A900007E004F090A1
:1001E6000009E0FF900007E0FD900006E0FB120F1B
:1001F6004E8025900007E0FF900042E0C39F501814
:10020600900007E014F0900009E0FF900007E0FD81
:10021600900006E0FB120F4E900006E0FF900040B3
:10022600E0D39F401A900006E004F0900009E0FF3A
:10023600900007E0FD900006E0FB120F4E8025902F
:100246000006E0FF900040E0C39F5018900006E0D3
:1002560014F0900009E0FF900007E0FD900006E032
:10026600FB120F4E200A0302054790004974FFF067
:10027600A37406F0A374F6F07B007A0079431209A2
:10028600F5900022EBF0A3EAF0A3E9F04A4B7003E5
:100296000203B0900022E0FBA3E0FAA3E0F990008D
:1002A60006120C0C64307072C2B390000D7408F024
:1002B6007D01FF120AB47B017A00790E120D5A7F76
:1002C600327E007D007C00120E4A7BFF7A0679D3CF
:1002D60090000DE0FD120DFF7F147E007D007C0076
:1002E600120E4AE4900001F0900042F0900040F0B7
:1002F6007F011208327F011208327F021208327F14
:10030600327E007D007C00120E4A7F031208327F87
:10031600327E007D007C00120E4A900022E0FBA394
:10032600E0FAA3E0F9900006120C0C64317073D267
:10033600B390000D7408F07D01FF120AB47B017AB8
:1003460000790E120D5A7F147E007D007C00120E7D
:100356004A7BFF7A0679CA90000DE0FD120DFF7FF9
:10036600327E007D007C00120E4A9000017463F01C
:10037600900042F0900040F07F011208327F011297
:1003860008327F021208327F327E007D007C001226
:100396000E4A7F031208327F327E007D007C0012F7
:1003A6000E4A120F2AC20A02054290004974FFF053
:1003B600A37406F0A374FDF07B007A00794312095A
:1003C600F5900022EBF0A3EAF0A3E9F04A4B606156
:1003D600900001E0FF900009E06F7055EFF090008B
:1003E60022E0FBA3E0FAA3E0F9900008120C0CFF50
:1003F6006003B40D0E900007120C0C24D09000017F
:10040600F08026900009120C0CFF6003B40D1A90C0
:100416000007120C0C24D075F00AA4FF90000812F5
:100426000C0C24D02F900001F07F01120832020537
:100436004290004974FFF0A37407F0A37405F07BA3
:10044600007A0079431209F5900022EBF0A3EAF056
:10045600A3E9F04A4B6061900042E0FF900007E09C
:100466006F7055EFF0900022E0FBA3E0FAA3E0F9ED
:10047600900008120C0CFF6003B40D0E90000712DA
:100486000C0C24D0900042F08026900009120C0C2F
:10049600FF6003B40D1A900007120C0C24D075F0FF
:1004A6000AA4FF900008120C0C24D02F900042F0F2
:1004B6007F0212083202054290004974FFF0A374CD
:1004C60007F0A3740DF07B007A0079431209F590CA
:1004D6000022EBF0A3EAF0A3E9F04A4B605E90003D
:1004E60040E0FF900006E06F7052EFF0900022E0CF
:1004F600FBA3E0FAA3E0F9900008120C0CFF6003DE
:10050600B40D0E900007120C0C24D0900040F08021
:1005160026900009120C0CFF6003B40D1A90000718
:10052600120C0C24D075F00AA4FF900008120C0CD3
:1005360024D02F900040F07F03120832120F2AC2F7
:070546000A120CE602010B92
:01054D00228B
:0C09C500C10DC10B41005A00C10CC10A59
:03002300020DB417
:100DB400C0E0C083C082C0D075D000C000C007307E
:100DC4009825C298D20C90005AE4F0C20A90003CD4
:100DD400E0FF2443F8A699EFC3943E5005E004F0E5
:100DE400800590003CE4F0309904C299C202D00717
:0B0DF400D000D0D0D082D083D0E032FD
:100D5A00900046EBF0A3EAF0A3E9F0900046E0FB2E
:100D6A00A3E0FAA3E0F9120BF3F599900047E475B2
:100D7A00F001120C397F017E007D007C00120E4AC0
:100D8A00900046E0FBA3E0FAA3E0F9120BF370CB64
:100D9A0075990D7F01FEFDFC120E4A75990A7F01B5
:090DAA007E007D007C00120E4A5F
:010DB300221D
:050DFF00900046EDF03C
:100E0400A3EBF0A3EAF0A3E9F0900046E0602BA383
:100E1400E0FBA3E0FAA3E0F9120BF3F59990004884
:100E2400E475F001120C397F017E007D007C001214
:100E34000E4A900046E014F080CF7F017E007D00D2
:050E44007C00120E4AC3
:010E49002286
:100E9200C202E490003CF090003DF0E598543F44DB
:100EA20040F59853A23F538EEF438E01438E047553
:100EB200D6FF75D7D0438E10D29CD2ACD2AFD2BC63
:070EC20053B1E743B218220F
:100AB400E4FE7E1490000EE4F0A3DEFCE4FEED7090
:100AC40014EE9006AC93FC740E2EF582E43400F51B
:100AD40083ECF08016EDB40112EE90054E93FC7495
:100AE4000E2EF582E43400F583ECF00EEEB40BCE5A
:100AF400C205EF75F06484FD60122430FD740E2E7F
:100B0400F582E43400F583EDF00ED205EF75F06460
:100B140084E5F075F00A84FD60142430FD740E2E13
:100B2400F582E43400F583EDF00ED2058011300532
:100B34000E740E2EF582E43400F5837430F00EEF5B
:100B440075F00A84E5F02430FF740E2EF582E43447
:100B540000F583EFF00E740E2EF582E43400F58375
:020B6400E4F0BB
:010B6600226C
:0F0F5F00E4FEEF600AE4FE0EEEB40EFB1F80F31B
:010F6E002260
:100E4A0090004A120C6590004AE0FCA3E0FDA3E082
:100E5A00FEA3E0FFEC4D4E4F602D7FC8120F5F904E
:100E6A00004AE0FCA3E0FDA3E0FEA3E0FF74FFEF6D
:100E7A0024FFFFEE34FFFEED34FFFDEC34FFFC905F
:080E8A00004A120C6580BF2232
:100EC90043A22053A2EFE4F5D8F5E9F5F975D90263
:100ED900F5F28FEA8FFA75DA42F5F3AF058FEB8FEA
:100EE900FB75DB42F5F4AF038FEC8FFC75DC42D266
:020EF900DE22F7
:100F4E008FEA8FFAAF058FEB8FFBAF038FEC8FFC21
:010F5E002270
:0F09D100C10F4200580000C11041005700C10E75
:03000B00020C7173
:100C7100C0E0C0F0C083C082C0D075D008900057DA
:100C8100E0C3940A5005E004F08007900057E4F0B7
:100C9100D20E900058E0FEA3E0FFE4FCFD7B607AF9
:100CA100EAF9F8D3120C4F4010900059E004F070AB
:100CB10006900058E004F08009D210900058E4F04A
:100CC100A3F090005AE0C3940A5005E004F0800AB2
:100CD100300C07200A04C20CD20AD0D0D082D083B3
:050CE100D0F0D0E0326C
:10000E00438E80C2B9E4F589758A9A758CA9D28C13
:05001E00D2A9D2AF22BF
:1009E00041005500410056004100530041005400B1
:0409F0004100520070
:100EFB00E490005BF07F06120F5F30B5FDE49000CD
:100F0B005BF030B50D7F01120F5F90005BE004F0DA
:0E0F1B0080F090005BE0D3940A4002D322C322
:010F290022A5
:10074500C2B57F147E007D007C00120E4AD2B57FB3
:100755000A120F5F30B5FD7F06120F5F20B5FDE46D
:1007650090005CF0120EFB500B900055E0FF25E069
:1007750004F08008900055E0FF25E0F090005CE073
:1007850004F0E0C3940840DCE490005CF0120EFB3A
:10079500500B900056E0FF25E004F08008900056CD
:1007A500E0FF25E0F090005CE004F0E0C394084031
:1007B500DCE490005CF0120EFB500B900053E0FF60
:1007C50025E004F08008900053E0FF25E0F090005C
:1007D5005CE004F0E0C3940840DCE490005CF012B7
:1007E5000EFB500B900054E0FF25E004F0800890CC
:1007F5000054E0FF25E0F090005CE004F0E0C394D5
:100805000840DCE490005CF0120EFB500B900052A7
:10081500E0FF25E004F08008900052E0FF25E0F0BD
:0C08250090005CE004F0E0C3940840DCAC
:0108310022A4
:100B7300020026E493A3F8E493A34003F68001F272
:100B830008DFF48029E493A3F85407240CC8C33383
:100B9300C4540F4420C8834004F456800146F6DF52
:100BA300E4800B0102040810204080900916E47EC3
:100BB300019360BCA3FF543F30E509541FFEE49347
:100BC300A360010ECF54C025E060A840B8E493A30E
:100BD300FAE493A3F8E493A3C8C582C8CAC583CA39
:100BE300F0A3C8C582C8CAC583CADFE9DEE780BEF1
:0109F4000002
:100BF300BB010689828A83E0225002E722BBFE0200
:090C0300E32289828A83E4932232
:100C0C00BB010CE58229F582E5833AF583E022509D
:100C1C0006E92582F8E622BBFE06E92582F8E222E7
:0D0C2C00E58229F582E5833AF583E4932201
:100C3900C5F0F8A3E028F0C5F0F8E5821582700246
:060C49001583E038F022E3
:100C4F00EB9FF5F0EA9E42F0E99D42F0EC6480C81C
:060C5F0064809845F022BC
:0C0C6500ECF0A3EDF0A3EEF0A3EFF02202
:1009F500900046EBF0A3EAF0A3E9F0A3E0FBA3E047
:100A0500FAA3E0F9120BF37003020AA1900046E085
:100A1500FBA3E0FAA3E0F9120BF37003020AAD9011
:100A25000049E0F9A3E0FAA3E0A3C9F0A3EAF0A323
:100A3500E9F0900046A3E0FAA3E0F990004FEBF04F
:100A4500A3EAF0A3E9F090004CE0FBA3E0FAA3E0F1
:100A5500F9120BF3FF602690004FE0FBA3E0FAA329
:100A6500E0F9120BF36F701590004D75F001120C43
:100A750039900050E475F001120C3980C990004C92
:100A8500E0FBA3E0FAA3E0F9120BF37002800D90EE
:100A95000047E475F001120C39020A11900046E096
:0F0AA500FBA3E0FAA3E0F9227B007A007900229C
:00000001FF
